:020000040800F2
:10000000600B0020B501000895290008751D000847
:1000100091290008BD040008B52B0008000000006D
:10002000000000000000000000000000812A00081D
:100030002906000800000000992900083D2B00084F
:10004000CF010008CF010008CF010008CF01000850
:10005000CF010008CF010008CF010008CF01000840
:10006000CF010008CF010008CF010008CF01000830
:10007000CF010008CF010008CF010008CF01000820
:10008000CF010008CF010008CF010008CF01000810
:10009000CF010008CF010008CF010008CF01000800
:1000A000CF010008CF010008CF010008CF010008F0
:1000B000CF010008CF010008CF010008CF010008E0
:1000C000CF010008CF010008CF010008CF010008D0
:1000D000CF010008CF010008CF010008CF010008C0
:1000E000CF010008CF010008CF01000800F002F89E
:1000F00000F050F814A696E8000CB244B344DA4578
:1001000001D100F047F8BAE80F000FA696E83000DA
:10011000A5EB040504EB0607AAEB0704A7F101070A
:100120004FEA15154FEA3414A4F10104AC4201D38F
:1001300000F030F813F0010F18BFFB1A43F0010371
:1001400000F001F8DBE71847E84C0000084D00001C
:10015000103A24BF78C878C1FAD8520724BF30C8F3
:1001600030C144BF04680C60704700007047000055
:100170000023002400250026103A28BF78C1FBD8B0
:10018000520728BF30C148BF0B6070471FB51FBD65
:1001900010B510BD00F082F81146FFF7F7FF02F02E
:1001A000D1FD00F0A0F803B4FFF7F2FF03BC00F0AC
:1001B000A7F800000948804709480047FEE7FEE726
:1001C000FEE7FEE7FEE7FEE7FEE7FEE7FEE7FEE707
:1001D00004480549054A064B70470000412B0008BA
:1001E000ED00000860050020600B00206007002083
:1001F0006007002002F0FF0343EA032242EA0242C2
:1002000000F02CB84FF0000200B513469446964615
:10021000203922BFA0E80C50A0E80C50B1F1200119
:10022000BFF4F7AF090728BFA0E80C5048BF0CC0C7
:100230005DF804EB890028BF40F8042B08BF704725
:1002400048BF20F8022B11F0804F18BF00F8012B97
:1002500070477047704770474FF000020429C0F0A4
:10026000128010F0030C3FF4CFAFCCF1040CBCF1C2
:10027000020F18BF00F8012BA8BF20F8022BA1EB3A
:100280000C01FFF7C1BF5FEAC17C24BF00F8012B5E
:1002900000F8012B48BF00F8012B7047754600F0AD
:1002A0002BF8AE4605006946534620F00700854608
:1002B00018B020B5FFF78CFFBDE820404FF00006D6
:1002C0004FF000074FF000084FF0000BAC46ACE8D1
:1002D000C009ACE8C009ACE8C009ACE8C00921F02D
:1002E00007018D46704710B50446AFF300802046E5
:1002F000BDE81040FFF757BF0048704710000020CE
:1003000001491820ABBEFEE726000200704700003E
:100310002DE9F04F87B0002003F056FA44F616623C
:100320000124C0F60002232005211023009403F0CD
:1003300045FD44F61A62C0F600020C20232110236A
:10034000009403F03BFD03F0A5FF03AC26202146FB
:1003500002F004F90028F9D1204601F085FF0028B9
:10036000F4D148F60048C0F6010808F5806A9DF807
:100370000D709DF80E609DF80F509DF8104003A978
:100380005046042200F0F6FA9DF80C00874268D12E
:100390009DF80D00864264D19DF80E00854260D123
:1003A0009DF80F0084425CD1002003F00DFA44F662
:1003B00016620124C0F600022320052110230094B8
:1003C00003F0FCFC3AA20C2023211023009403F03C
:1003D000F5FC03F05FFF03AE2620314602F0BEF8C5
:1003E0000028F9D1304601F03FFF0028F4D19DF8F4
:1003F0000D409DF80E709DF80F509DF810B04046CE
:100400008DF808408DF809708DF80A508DF80BB002
:1004100000F0E0FA012829DB064600210DF10C0965
:100420004FF0000806E000BF08F101085FFA88F10C
:100430008E421BDD504600F043F84946042200F08E
:1004400099FA9DF80C008442EED19DF80D00874288
:10045000EAD19DF80E008542E6D19DF80F00834554
:10046000E2D1002007B0BDE8F08F00BF48F600449D
:10047000C0F60104204600F0ADFA0646504631466B
:1004800000F01EF800F062FA5046314600F018F80D
:1004900002A9042200F0A0FA204600F057FA711CCD
:1004A000204600F0B3FA012007B0BDE8F08F00BF8E
:1004B0004E6577204361726400000000FEE7000093
:1004C00000EB81207047000010B584B004466946F7
:1004D000262002F043F818B9684601F0C5FE18B1AD
:1004E000002004B010BD00BFDDF801002060012035
:1004F00004B010BD2DE9F04182B048F60046C0F6C8
:1005000001060446304600F065FA01282CDB05465A
:10051000002106F580660DF10408002704E000BF05
:100520000137F9B28D421FDD3046FFF7C9FF414662
:10053000042200F01FFA20789DF804108842EFD1C1
:1005400060789DF805108842EAD1A0789DF80610E1
:100550008842E5D1E0789DF807108842E0D100207C
:1005600002B0BDE8F08100BF012002B0BDE8F0811B
:100570002DE9F04784B040F60008C4F201088A462D
:1005800006464046102100224FF0000900F068FCAA
:10059000802040F2E00540EA4600C2F200058DF8F6
:1005A000090064240DF1090102AA284601230094E0
:1005B00001F060FA0DF10B010DF10A02284601234A
:1005C0008DF80B90009401F055FA9DF80A704046A2
:1005D0001021012200F044FC40461021002227EAAD
:1005E0000A0700F03DFC7E2000EA46008DF80D0071
:1005F0000DF10D0103AA28460123009401F03AFAF7
:100600000DF10F010DF10E02284601238DF80F7038
:10061000009401F02FFA40461021012200F020FC46
:1006200004B0BDE8F0870000704700002DE9F04FEE
:1006300089B0002003F0C8F844F616620124C0F621
:1006400000022D2005211023009403F0B7FB44F68F
:100650001A62C0F600020C2023211023009403F03C
:10066000ADFB03F017FE04AC2620214601F076FF17
:100670000028F9D1204601F0F7FD0028F4D148F612
:10068000004BC0F6010B0BF5806A9DF811709DF8C8
:1006900012609DF813509DF8144004A9504604229E
:1006A00000F068F99DF81000874240F097809DF8AF
:1006B0001100864240F092809DF81200854240F081
:1006C0008D809DF81300844240F08880002003F064
:1006D0007BF844F616620124C0F600022D200521A5
:1006E0001023009403F06AFB5DA20C202321102349
:1006F000009403F063FB03F0CDFD04AC26202146FB
:1007000001F02CFF0028F9D1204601F0ADFD0028B2
:10071000F4D19DF814009DF811709DF812809DF899
:1007200013900390584600F055F9012856DB044613
:10073000002104AE002503E00135E9B28C424DDD15
:100740005046FFF7BDFE3146042200F013F99DF834
:1007500010008742F0D19DF811008045ECD19DF842
:1007600012008145E8D19DF8130003998142E3D13D
:10077000584600F02FF90290584600F02BF9012856
:1007800030DB064600244FF0000B002506E000BFDA
:100790000BF1010B5FFA8BF4A64224DD5046214693
:1007A000FFF78EFE04A9042200F0E4F89DF8100083
:1007B0008742EDD19DF811008045E9D19DF81200E6
:1007C0008145E5D19DF8130003998142E0D150465F
:1007D0002146FFF775FE0546DAE700BF002009B0A5
:1007E000BDE8F08F00250DF110082846414604228F
:1007F00000F0C0F848F60047C0F60107384600F0A0
:10080000E9F8411E5046FFF75BFE08AC2146042282
:10081000064600F0AFF8284600F098F8304600F0A1
:1008200095F828462146042200F0D6F83046414685
:10083000042200F0D1F8384600F0CCF8411E5046B2
:10084000FFF73EFE00F082F8384600F07FF802988D
:10085000411E384600F0DAF8012009B0BDE8F08FFB
:10086000436172642044656C6574650070B542F242
:100870000C060446C4F2020600F0F8FA3168C90713
:1008800018D13068800644BF202030603068C00630
:1008900007D43069C00704D1306840075CBF00202E
:1008A00070BD3068C00623D40020316849072BD4BE
:1008B00034E000BF002C47D00546601C0ED13068E4
:1008C000C007DED03068C0071CBF30685FEAC07068
:1008D000D7D03068C007F2D1D3E700BF00F0C6FA26
:1008E000401BA04230D83068C007F7D1C9E700BF2D
:1008F00040F23810C2F20000C16941F00201C1614A
:1009000010203168490709D540F23811C2F20001C0
:10091000CA6940F0040042F00102CA613169C907A6
:1009200002D13060012070BD40F23811C2F20001E6
:10093000CA6942F00402CA61316921F001013161E2
:100940003060012070BD00BF032070BD10B586B0BF
:10095000044600F057F901200590CDE9030400207A
:10096000029002A801A900F075F800F0EBF806B0BB
:1009700010BD0000002A08BF704780B54FF0000C82
:100980005FFA8CF313F800E04CF00103DBB2934202
:1009900081F800E01BD213F800E04CF00203DBB258
:1009A000934281F801E012D213F800E04CF0030307
:1009B000DBB2934281F802E009D21B5C0CF1040C1B
:1009C000CB705FFA8CF3934201F10401D8D3BDE8F8
:1009D000804070470088704770B516460D46044643
:1009E00000F010F96EB1701C4608023D35F8022F78
:1009F00001202146002300F0AFF8013E04F102047B
:100A0000F4D1BDE8704000F09DB80000B0B50C46D0
:100A1000054600F0F7F8E31701202946224600F0CA
:100A20009BF8BDE8B04000F08DB80000B0B50446BA
:100A300000F01CFA054640F20000C2F20000007807
:100A4000611C18BF044400BF00F010FA401BA04214
:100A5000FAD3B0BD2DE9F04381B040F23816C2F2AE
:100A60000006327E012A03D1022001B0BDE8F083E6
:100A7000054601202C6830764CF250308846FFF74E
:100A8000F5FE022C1CD100284ED1002042F21004A9
:100A9000F061C4F20204206840F004002060206885
:100AA00040F0400020604CF25030FFF7DFFE21683C
:100AB00021F0040121600021317601B0BDE8F0830E
:100AC00090BB4FF0FF30C8F80000D5E9027007EB8B
:100AD0008020874228D242F21004C4F202044FF070
:100AE000000900BFC6F81C90206840F0020020609A
:100AF0006760206840F0400020604CF25030FFF703
:100B0000B5FE216821F00201216098B9D5E9020102
:100B100007F5806700EB81208742E3D300200021A6
:100B2000317601B0BDE8F08301200021317601B0BB
:100B3000BDE8F083C8F800700021317601B0BDE84F
:100B4000F083000042F21001C4F20201086840F094
:100B5000800200200A6070472DE9F04F81B040F21A
:100B60003819C2F20009924699F81820012A03D1D7
:100B7000022001B0BDE8F08F8046012089F81800FE
:100B80004CF250309B460E46FFF770FEA0BB40462D
:100B900042F21007B8F1020F18BF0420C4F2020796
:100BA000B8F1010F08BF404645424FF0000800244D
:100BB000C4F12001C9F81C802AFA04F00BFA01F1F3
:100BC0003A680843B4F1200158BF2BFA01F042F013
:100BD0000101396026F8020B4CF25030FFF746FE57
:100BE0003968013521F0010248F100013A6018B975
:100BF000002904F11004DBD0002189F8181001B09D
:100C0000BDE8F08F42F20400C4F20200C168090698
:100C10005CBF0020704740F22311C4F267510160AD
:100C200048F6AB11CCF6EF510160C068C0B2C00904
:100C3000704700002DE9F04F82B00E68002E00F0E2
:100C4000FD8041F20042C4F20102042340F2004E52
:100C5000904208BF03234FF6FF7CC4F2010E0093BD
:100C600000240123C1F2100C4FF0000A4FF00009DC
:100C700044E000BF012704F00C030F229A402BEA46
:100C8000020207FA03F34FEA9A051A4346F82520B1
:100C90004E6840F20C45F202DEF8082054BF22EA0A
:100CA000080242EA0802C4F20105CEF808202A68C8
:100CB000B30254BF22EA080242EA08022A60B303E0
:100CC000DEF8042054BF22EA080242EA0802F303D5
:100CD000CEF80420DEF800204FF0010354BF22EAD2
:100CE000080242EA0802CEF800200E680AF1010A62
:100CF00036FA0AF204F1040400F0A08003FA0AFBB9
:100D000016EA0B08F1D04E68664511DC122E55D854
:100D1000DFE806F0340A44485454545454545454AC
:100D200054545454544C5000D1F80C9046E000BF39
:100D30004FF6FF72C1F2210296420FDC0022C1F28F
:100D4000110296421AD00022C1F21202964215D028
:100D50000022C1F22102964210D02FE00022C1F2FF
:100D6000220296420AD00022C1F23102964205D0F8
:100D70000022C1F23202964220D100BF8A684AB1F5
:100D8000012A14BFC0F814B0C0F810B04FF0080921
:100D900014E000BF4FF0040910E000BFCA6802F180
:100DA00008090BE04FF0000908E000BFCA6802F133
:100DB000040903E0CA6802F10C0900BF2246064696
:100DC000B8F5807F24BF203A043637680F25954058
:100DD00027EA050509FA02F22A433260CA79D206E7
:100DE0007FF583AF41F21803C4F202031A68AEF52F
:100DF0007E7642F001021A601A6802F00102019246
:100E0000019A2AF0030256F802B040F60002C4F23A
:100E10000102904210D040F60042C4F2010290421A
:100E20003FF428AF41F20002C4F20102009F904259
:100E300008BF02271FE700BF00271CE702B0BDE87C
:100E4000F08F00008068084018BF01207047000044
:100E5000C26802EA0103914341EA0341016170471C
:100E6000002A08BF090401617047000040F2585091
:100E7000C2F2000000687047002804BF01207047DC
:100E8000F0B581B0044690F83D0028B9002084F800
:100E90003C00204600F090F9242084F83D002068B2
:100EA000016821F001010160016841F40041016025
:100EB000016821F40041016000F036FB636848F2EC
:100EC000A16CC0F2010C40F60011C0F23D01634577
:100ED0003CBF48F28041C0F21E01884202D201208C
:100EE00001B0F0BD4DF68361C4F21B31A0FB0112CD
:100EF0002168970CD1F804E04FF496762EF03F0568
:100F000045EA92454D60774348F638160D6AC0F2BF
:100F10004106A7FB067625F03F07634538BF960CD0
:100F2000721C3A430A62CA6948F2A0664CF6FF771F
:100F3000C0F20106B34222EA07020BD801385B0077
:100F4000B0FBF3F001306FF31F30042898BF04208A
:100F50001BE000BFA768013857B119277B43B0FBDE
:100F6000F3F001306FF31F3070B100F5804007E0FF
:100F700003EB4303B0FBF3F001306FF31F3018B104
:100F800000F5004001E000BF01201043C86108687F
:100F9000D4E9072320F0C000104318430860886894
:100FA00048F2FF3204F10C0790438CCF18431043F2
:100FB000A6698860C86820F0FF0038433043C860E5
:100FC000086840F00100086000202021206484F8B7
:100FD0003D10206384F83E0001B0F0BD2DE9F043E0
:100FE00083B01E46174689460446FFF73FFF94F834
:100FF0003D10202924D10546206800BF816989075A
:101000001AD5FFF733FF411B20681A29F6D38169EF
:101010008907F3D500202021206384F83D1084F84F
:101020003E00216C41F02001216484F83C00022044
:1010300003B0BDE8F08300BF94F83C10012903D150
:10104000022003B0BDE8F083012184F83C10016860
:10105000C90703D1016841F001010160016840F254
:10106000020821F400610160212184F83D10102163
:1010700084F83E100021216467626685618DC0F2AC
:1010800001082185A8F10211E162E16A0A9E11F5C9
:10109000803F18BF01291DD1016841F480710160B2
:1010A00020464FF0011100223346009500F0C2FEA9
:1010B00050B120680068C00544BF4FF40070206440
:1010C000012003B0BDE8F0832069B0F5804F07D15F
:1010D000FE2015E00829DFD0216B1229DCD0DFE7E4
:1010E000062000EAD9102168F030086108F10601F5
:1010F000204632462B4600F083FF0028E0D1FF2037
:10110000216800EA090008612046414632462B4624
:1011100000F076FF0028D3D10020029020684169BA
:10112000029180690290029806E000BF2046314695
:101130002A4600F021FE18BB208D68B320463146B8
:101140002A4600F0C9FFD8B9606A2168024612F841
:10115000013B0B616262628D013A6285228D531EF2
:1011600023854F697F07E1D51B04DFD04378023028
:101170000B616062608D01386085901E2085D5E727
:10118000206C04289CD12068016841F40071016042
:10119000012003B0BDE8F0832068016841F40071CC
:1011A0000160202084F83D00002084F83E0084F88F
:1011B0003C0003B0BDE8F08310B586B045F20041B5
:1011C0000068C4F2000100228842049202D006B0F6
:1011D00010BD00BF41F21804C4F20204206840F0C0
:1011E00008002060206800F0080001900198C020ED
:1011F0000290122003900320059001F5384002A9C7
:10120000FFF718FD606840F400106060606800F44B
:1012100000100190019806B010BD000040F20000DF
:1012200040F25851C2F20000C2F2000100780A6890
:10123000104408607047000080B542F20000C4F21C
:101240000200016841F010010160032000F07AF80B
:101250000F2000F005F800F027F8002080BD000006
:1012600070B540F20006C2F2000640F20801327882
:10127000C2F200014FF47A730968B3FBF2F204463C
:10128000B1FBF2F1084600F05FFD0F2C4FF00105B5
:1012900008D838B94FF0FF3021460022002500F071
:1012A00025F87460284670BD82B041F21800C4F27F
:1012B00002000168022241F001010160016801F0B1
:1012C000010101910199416841F0805141604068FC
:1012D00000F08050009000980420C4F201000168E2
:1012E00062F31A61016002B07047000010B54EF65B
:1012F0000C5CCEF2000CDCF80030C3F3022E8EF052
:101300000704042C28BF0424BEF103034FF0FF3E62
:101310000EFA04F438BF0023A14399400EFA03F3F8
:101320009A43114300F00F0200F160430901043AAF
:1013300003F564436244002848BF02F10C031970AE
:1013400010BD00004EF60C51CEF200010A684FF6B7
:10135000FF031A4060F30A2242F0806040F0FD7003
:1013600008607047002804BF012070472DE9F04352
:1013700081B042F20008C4F202080446D8F8000026
:101380000D4600F0070088420CD2D8F8000020F08B
:1013900007002843C8F80000D8F8000000F0070054
:1013A000A8426CD1206841F204098107C4F2020905
:1013B00017D5410705D5D9F8001041F4E061C9F807
:1013C0000010010705D5D9F8001041F46051C9F8A3
:1013D0000010D9F80010A26821F0F0011143C9F8FB
:1013E0000010C00742D1D8F8000000F00700A84262
:1013F0000CD9D8F8000020F007002843C8F80000F6
:10140000D8F8000000F00700A84238D12068410752
:1014100007D5D9F80010E26821F4E0611143C9F85A
:101420000010000708D5D9F80000216920F46050A9
:1014300040EAC100C9F80000D9F8002002F00C0011
:10144000082841F20020C0F27A0051D144F6F85346
:10145000C2F38341C0F60003595CD2033CD440F68A
:101460000010C0F23D00484342E000BF606802281F
:101470000AD001282AD159F8041C890308D4012074
:1014800001B0BDE8F08300BF59F8041C8901F6D50E
:10149000D9F8001021F003010843C9F80000FFF754
:1014A000E5FC064641F28837D9F80000616800F093
:1014B0000C00B0EB810F96D0FFF7D8FC801BB84230
:1014C000F2D9032001B0BDE8F08300BF59F8041C35
:1014D0008907D4D5DCE700BFD9F8002044F2923365
:1014E000C2F34042C0F600039A5C4843B0FBF2F0FE
:1014F000D9F8001044F27A32C1F30311C0F60002A9
:10150000515C40F2080220FA01F140F20400C2F2FC
:1015100000000068C2F200021160FFF7A1FE002087
:1015200001B0BDE8F083000040F2080041F2040180
:10153000C2F20000C4F202010068096844F28A3273
:10154000C1F30221C0F60002515CC84070470000A0
:10155000002804BF012070472DE9F04182B0044605
:10156000007841F20006C007C4F202060CD0706891
:1015700000F00C00042840F081803068800303D51F
:101580006068002800F04E81207880071BD57068C5
:1015900010F00C0F09D0706800F00C00082840F023
:1015A0008B807068C00300F187803068800703D5A6
:1015B0002069012840F036813068616920F0F80028
:1015C00040EAC10030602078000713D4207840073B
:1015D0002CD4E569002D00F02081706800F00C002B
:1015E000082840F0AF80012D40F00C81012002B0AE
:1015F000BDE8F081A069002800F08C800020C4F2D2
:1016000042200121C0F88014FFF730FC054600BFDE
:10161000706A800700F1BA80FFF728FC401B02289F
:10162000F6D9032002B0BDE8F08100BFF0695FEA9F
:10163000C00808D4F06940F08050F061F06900F013
:1016400080500090009847F20007C4F20007386805
:10165000C0054DD4386840F480703860FFF706FC50
:10166000054600BF3868C00542D4FFF7FFFB401BAA
:101670006428F7D9032002B0BDE8F081706800F05B
:101680000C00082803D17068C0033FF576AF60688E
:10169000002800F00981B0F5A02F00F01D81B0F501
:1016A000803F00F01D81306820F480303060306869
:1016B00020F4802017E100BF2069002840F20000DC
:1016C000C4F2422000F08C8001210160FFF7CEFBC4
:1016D000054600BF306880073FF56EAFFFF7C6FBD9
:1016E000401B0228F6D9032002B0BDE8F08100BFFC
:1016F000E068002800F09A80052800F0B1800128F9
:1017000000F0B280306A20F001003062306A20F0D0
:101710000400ACE00020C4F242200021C0F8801494
:10172000FFF7A4FB054600BF706A80077FF54EAF48
:10173000FFF79CFB401B0228F6D9032002B0BDE84E
:10174000F08100BF0027C4F2422700203866FFF76F
:101750008DFB022D05460DD13068800140F1D68009
:10176000FFF784FB401B02284FF00300F4D902B0BE
:10177000BDE8F081306880014FD5FFF777FB401B53
:1017800002284FF00300F5D9F1E700BF40F208004E
:10179000C2F20000006844F6D351C1F26201A0FB1E
:1017A0000101480A019000BF00BF0198411E0028B6
:1017B00001913FF40BAF00BF0198411E0028019139
:1017C0003FF404AF00BF0198411E002801913FF48F
:1017D000FDAE00BF0198411E00280191E4D1F5E65D
:1017E00000210160FFF742FB054600BF306880071B
:1017F0007FF5E9AEFFF73AFB401B02284FF00300EC
:10180000F4D9B4E77068216A00F480328A4209D1C1
:10181000616A00F47010884204D1002002B0BDE873
:10182000F08100BF012002B0BDE8F081306A20F0F5
:1018300001003062306A20F004003062FFF716FBCE
:10184000054641F2883700BF306A800722D5FFF78E
:101850000DFB401BB8424FF00300F5D987E700BFEE
:10186000306A40F004003062306A40F001003062BB
:10187000FFF7FCFA054641F2883700BF306A80075F
:1018800008D4FFF7F3FA401BB842F7D9032002B09F
:10189000BDE8F081B8F1000F3FF59BAEF06920F094
:1018A0008050F06195E600BF306820F480303060F1
:1018B000306820F480203060FFF7D8FA054600BF7A
:1018C000306880037FF560AEFFF7D0FA401B6428D4
:1018D0004FF00300F4D94AE7306840F480203060CC
:1018E000306840F480303060FFF7C0FA054600BF32
:1018F000306880033FF548AEFFF7B8FA401B642814
:10190000F6D9032002B0BDE8F08100BF206AB0F52F
:10191000803F05D17168A26821F4003111437160E4
:101920007168626A21F474111143084370600120E8
:101930003866FFF79BFA0446306880013FF56DAFCB
:10194000FFF794FA001B02284FF00300F4D90EE7CA
:1019500070B538B10446406A30B10020206104F10E
:10196000140007E0012070BD6068B0F5827F03D0ED
:1019700004F11C00002101600026A66294F85100C9
:1019800020B9204684F8506000F038F8022084F82E
:10199000510094E8071001F48271036802F40442D4
:1019A00023F040030360236911440CF400621144E6
:1019B00003F002026369114403F00102A369E569BF
:1019C000114403F40072114405F03802256A1144F1
:1019D00005F08002A56A114305F40052114301602D
:1019E000042101EA13414160C16921F40061C16130
:1019F0000120666584F85100304670BD70B586B030
:101A000040F60004C4F20104006804F520510026E9
:101A10008842049602D006B070BD00BF41F21800A3
:101A2000C4F20200016802AD41F480510160016816
:101A300001F4805101910199016841F004010160B4
:101A40000068294600F0040001900198A02002904F
:101A500002200390032005902046FFF7EBF840207A
:101A6000CDE90206204629460496FFF7E3F806B0C2
:101A700070BD00002DE9F04381B0044690F850009D
:101A8000012803D1022001B0BDE8F08301201E46E9
:101A900015460F4684F85000FFF7E8F994F8511006
:101AA000814601290CD1002F4FF0010018BF002DF5
:101AB00014D1002184F8501001B0BDE8F08300BFBC
:101AC0006068B0F5827F40F0998004294FF00200F1
:101AD000EFD1A1680029E6D0EBE700BF002EE8D0E7
:101AE00094F85100002104281CBF052084F85100FF
:101AF0006165A563E687A6872763E6862068A686D4
:101B0000216461640168490603D4016841F0400121
:101B100001606168731EE268B1FA81F1B3FA83F380
:101B2000DDF8208049095B09B2F5006F41EA030145
:101B30006CD131B137F8021BC1602763E08E0138E8
:101B4000E086012518F1010031D101E0FFF78EF99F
:101B5000E08E18B9E08F002800F0C080206881680E
:101B600089070CD5E18E51B1012D08D1216B0025DB
:101B700031F8022BC2602163E18E0139E186816870
:101B8000C907E3D0E18F0029E0D0C068A16B01252F
:101B900021F8020BA163E08F0138E087D6E700BF90
:101BA000FFF764F9A0EB0900404580F0AB80E08EC0
:101BB00018B9E08F002800F09180206881688907BB
:101BC0000CD5E18E51B1012D08D1216B002531F8E2
:101BD000022BC2602163E18E0139E1868168C90769
:101BE000DED0E18F0029DBD0C068A16B012521F890
:101BF000020BA163E08F0138E087D1E702200021CA
:101C000084F8501001B0BDE8F08300BF39B13978D5
:101C10000173206B01302063E08E0138E0860125DE
:101C200018F1010032D101E0FFF720F9E08E10B980
:101C3000E08F002852D02068816889070ED5E18E98
:101C400061B1012D0AD1216B002509780173216B47
:101C5000206801312163E18E0139E1868168C9077D
:101C6000E2D0E18F0029DFD0C068A16B01250870A8
:101C7000A06B0130A063E08F0138E087D4E700BF9C
:101C8000FFF7F4F8A0EB090040453BD2E08E08B91D
:101C9000E08F18B32068816889070ED5E18E61B1A5
:101CA000012D0AD1216B002509780173216B206871
:101CB00001312163E18E0139E1868168C907DFD0F6
:101CC000E18F0029DCD0C068A16B01250870A06BF2
:101CD0000130A063E08F0138E087D1E72046802102
:101CE00042464B4600F05AFEB0B1606D40F0200015
:101CF0006065202060650120002184F8501001B04B
:101D0000BDE8F083012084F851000320002184F80D
:101D1000501001B0BDE8F083A06838B900200090F1
:101D20002068C1680091806800900098606D00286C
:101D30004FF0010004BF84F851000020002184F816
:101D4000501001B0BDE8F083411E0020B0EB116FD0
:101D50001CBF012070474EF21002CEF2000251600B
:101D60004EF62351CEF20001F0230B700721906054
:101D700011607047FEE7000070B50368044653F831
:101D8000140F400711D40E46481C29D086BB00BF53
:101D90001868400527D4FFF769F8236853F8140F33
:101DA000400737D518684007F2D5002070BD00BF46
:101DB00018684007F9D41868400514D4186840071B
:101DC000F3D4186840050ED418684007EDD418689D
:101DD000400508D4186840074FF0000048BF70BDA8
:101DE00018684005E4D56FF480601860042012E0A4
:101DF000154603E053F8140F4007D6D41868400581
:101E0000F1D4FFF733F8401B2368B042F2D9586988
:101E10004007EFD4202000212022216384F83D20B8
:101E200084F83E10226C10432064012084F83C109A
:101E300070BD00002DE9F041054600681E461446BD
:101E400001F47F0201338FB242D0DDF81880B2F581
:101E5000803F40F0878040693840C01BB0FA80F076
:101E60004009A04240F0C8804EB924E040693840A3
:101E7000C01BB0FA80F04009A04240F0BD80FEF7E0
:101E8000F5FFA0EB08012868B142EFD9416939405C
:101E9000C91BB1FA81F14909A142E7D19BE000BF1A
:101EA00040693840C01BB0FA80F04009A0424FF0B2
:101EB000000040F0A280FEF7D9FF28684169394050
:101EC000C91BB1FA81F14909A142E9D183E000BF00
:101ED000B2F5803F24D100BF41693940C91BB1FA36
:101EE00081F14909A14240F0878041693940C91B0D
:101EF000B1FA81F14909A14240F07E80416939403F
:101F0000C91BB1FA81F14909A14275D14169394032
:101F1000C91BB1FA81F14909A142DDD06CE000BFD3
:101F200081693940C91BB1FA81F14909A14263D1E4
:101F300081693940C91BB1FA81F14909A1425BD1DC
:101F400081693940C91BB1FA81F14909A14253D1D4
:101F500081693940C91BB1FA81F14909A142DFD039
:101F60004AE000BF80693840C01BB0FA80F04009E9
:101F7000A04241D146B923E080693840C01BB0FA85
:101F800080F04009A04237D1FEF770FFA0EB0801B6
:101F90002868B142F0D981693940C91BB1FA81F191
:101FA0004909A142E8D116E080693840C01BB0FA67
:101FB00080F04009A0424FF0000018BFBDE8F0815A
:101FC000FEF754FF286881693940C91BB1FA81F1D5
:101FD0004909A142E8D100202021286385F83D105D
:101FE00085F83E00296C41F02001296485F83C0009
:101FF0000120BDE8F08100BF0020BDE8F0810000B5
:10200000F0B581B0044600681D4643698FB203EA0B
:102010000701B94202D1002001B0F0BD4169164666
:1020200001323FD049053FD4CEB100BFFEF71EFFBD
:10203000411B2068B14203D941693940B94215D1E9
:1020400041693940B942E6D041694905EED52BE0F6
:1020500041693940B942DED04169490524D4FEF7CF
:1020600005FF206841693940B942F1D0202023E0C2
:1020700041693940B942CED04169490514D441691A
:102080003940B942C7D0416949050DD44169394049
:10209000B942C0D04169490506D441693940B942C5
:1020A000B9D041694905E3D5016841F40071016087
:1020B0006FF480614161042000212022216384F8B3
:1020C0003D2084F83E10226C1043206484F83C10BC
:1020D000012001B0F0BD000070B50368044653F85C
:1020E000140F000611D40E46481C29D086BB00BF31
:1020F0001868400527D4FEF7B9FE236853F8140F7B
:10210000000637D518680006F2D5002070BD00BF64
:1021100018680006F9D41868400514D41868000639
:10212000F3D4186840050ED418680006EDD418687A
:10213000400508D4186800064FF0000048BF70BD85
:1021400018684005E4D56FF480601860042012E040
:10215000154603E053F8140F0006D6D4186840055E
:10216000F1D4FEF783FE401B2368B042F2D95869D0
:102170000006EFD4202000212022216384F83D2096
:1021800084F83E10226C10432064012084F83C1037
:1021900070BD000070B582B044F60865012BC0F632
:1021A000000503D1561E88552A240DE0961EFF20F7
:1021B0008855501910F8010C012100912821202286
:1021C0000C23202401F09AFBA85D01262821224639
:1021D0000C23009601F092FB02B0BDE8704002F0C3
:1021E00059B8000010B582B0002001F0EDFA0124CA
:1021F0000FA216200F211023009401F0DFFD02F042
:1022000049F84FF4FA60FEF711FC002001F0DCFA07
:1022100044F60E62C0F6000220200F211023009425
:1022200001F0CCFD02B0BDE8104002F033B800BFB1
:102230004661696C20496E7075740000B0B50C463B
:1022400005460846062100F03DFD072806D1284630
:102250002146BDE8B04001F027B800BF284621461E
:10226000BDE8B04001F0D0B82DE9F04184B040F6AF
:102270000005C4F2010504462846102100224FF053
:102280000008FEF7EDFD40F2E0061A20C2F200065B
:102290008DF80D0064270DF10D0103AA30460123CE
:1022A0000097FFF7E7FB0DF10F010DF10E0230462D
:1022B00001238DF80F800097FFF7DCFB28461021E3
:1022C0000122FEF7CDFD42F29300208002AF0C20E8
:1022D000214602222346009700F084F910B104B091
:1022E000BDE8F08120786178A278E37848405040DA
:1022F00021795840401A18BF0120400004B0BDE8C1
:10230000F0810000F0B583B040F60004C4F201048F
:10231000204610210122FEF7A3FD04F58060012173
:102320000122FEF79DFD2046102100220027FEF726
:1023300097FD40F2E0050220C2F200058DF80B0087
:1023400064260DF10B010DF10A02284601230096C7
:10235000FFF790FB0F208DF80B000DF10B010DF135
:102360000A02284601230096FFF784FB204610212D
:102370000122FEF775FD204610210022FEF770FDB8
:1023800054208DF80B000DF10B010DF10A022846C7
:1023900001230096FFF76EFB8D208DF80B000DF1E9
:1023A0000B010DF10A02284601230096FFF762FB9C
:1023B000204610210122FEF753FD20461021002265
:1023C000FEF74EFD56208DF80B000DF10B010DF1BF
:1023D0000A02284601230096FFF74CFB3E208DF8A9
:1023E0000B000DF10B010DF10A02284601230096A6
:1023F000FFF740FB204610210122FEF731FD204669
:1024000010210022FEF72CFD5A208DF80B000DF153
:102410000B010DF10A02284601230096FFF72AFB63
:102420001E208DF80B000DF10B010DF10A0228465C
:1024300001230096FFF71EFB204610210122FEF724
:102440000FFD204610210022FEF70AFD58208DF8CE
:102450000B000DF10B010DF10A0228460123009635
:10246000FFF708FB0DF10B010DF10A0228460123CD
:102470008DF80B700096FFF7FDFA2046102101221F
:10248000FEF7EEFC204610210022FEF7E9FC2A2090
:102490008DF80B000DF10B010DF10A022846012306
:1024A0000096FFF7E7FA40208DF80B000DF10B01C5
:1024B0000DF10A02284601230096FFF7DBFA2046B9
:1024C00010210122FEF7CCFC204610210022FEF74D
:1024D000C7FC22208DF80B000DF10B010DF10A0253
:1024E000284601230096FFF7C5FA3D208DF80B0022
:1024F0000DF10B010DF10A02284601230096FFF7AA
:10250000B9FA204610210122FEF7AAFC204610212C
:102510000022FEF7A5FCA8208DF80B000DF10B01A1
:102520000DF10A02284601230096FFF7A3FA0DF1E8
:102530000B010DF10A02284601238DF80B7000965D
:10254000FFF798FA204610210122FEF789FC14209B
:10255000032100F097FA03B0F0BD00002DE9F0412F
:1025600084B040F60008C4F201080C460546404617
:1025700010210022FEF774FC40F2E0071A20C2F29C
:1025800000078DF80D0064260DF10D0103AA3846F1
:1025900001230096FFF76EFA07208DF80F000DF16A
:1025A0000F010DF10E02384601230096FFF762FA83
:1025B000404610210122FEF753FC02AF0C202146B9
:1025C000012223462570009700F00CF8029910298B
:1025D000014618BF0221002818BF0221084604B096
:1025E000BDE8F0812DE9F04F87B017460C288846EA
:1025F0000293049006D00E2808D1112005901220D5
:1026000007E000BF31200590772002E0012005900F
:10261000002040F60006C4F20106039000F1800598
:102620003046102100224FF00009FEF719FC40F25D
:10263000E00A0420C2F2000A8DF81B0064240DF1A8
:102640001B010DF11A02504601230094FFF712FA04
:102650000DF11B010DF11A02504601238DF81B509C
:102660000094FFF707FA304610210122FEF7F8FB2D
:1026700004208021FDF77CFF0A20802100F002FA6F
:10268000304610210022FEF7EBFB02208DF81B00E4
:102690000DF11B010DF11A02504601230094FFF7C2
:1026A000E9F90DF11B010DF11A02504601238DF8D5
:1026B0001B900094FFF7DEF9304610210122FEF74F
:1026C000CFFB67B340F2E00AA8F10105C2F2000AAD
:1026D0000DF11B090DF11A0815F801BF3046102144
:1026E00000226424FEF7BCFB12208DF81B0050462C
:1026F0004946424601230094FFF7BCF96424504642
:102700004946424601238DF81BB00094FFF7B2F909
:10271000304610210122FEF7A3FB013FDCD13046F9
:1027200010210022FEF79CFB40F2E0070220C2F2DB
:1027300000078DF81B000DF11B010DF11A02384640
:1027400001230094FFF796F9049D0DF11B010DF193
:102750001A02384601238DF81B500094FFF78AF9BE
:10276000304610210122FEF77BFB0C2D03D10D20FA
:10277000802100F087F94FF6300540F2E009CFF6EE
:10278000FF754FF088084FF0640AC2F200090DF19E
:102790001B0B0DF11A0400BF304610210022FEF77A
:1027A0005FFB48465946224601238DF81B80CDF831
:1027B00000A0FFF75FF900208DF81B00484659463E
:1027C00022460123CDF800A0FFF754F99DF81A70B6
:1027D000304610210122FEF743FB013580F0D08006
:1027E00005983842D8D00D208021FDF7C1FE304633
:1027F000102100224FF00008FEF732FB40F2E00407
:102800008C20C2F200048DF81B0064250DF11B0121
:102810000DF11A02204601230095FFF72BF90DF167
:102820001B010DF11A02204601238DF81B80009533
:10283000FFF720F99DF81A40304610210122FEF7DB
:102840000FFB14F01B0F40F09F8003980499384051
:102850000C2900F0010040F09880059030461021CE
:1028600000224FF010094FF00008FEF7F9FA40F28D
:10287000E0059420C2F200050DF11A0B8DF81B0043
:1028800064240DF11B0128465A4601230094B246E8
:102890000126FFF7EFF80DF11B010DF11A02284692
:1028A00001238DF81B800094FFF7E4F89DF81A705F
:1028B000504610210122FEF7D3FA50461021002283
:1028C000FEF7CEFA98208DF81B000DF11B010DF1DB
:1028D0001A02284601230094FFF7CCF80DF11B01E2
:1028E0000DF11A02284601238DF81B800094FFF792
:1028F000C1F89DF81A80504610210122FEF7B0FA67
:1029000018F0070040EAC7001099A0F1080008BFBE
:10291000F8000860012F98BF3746102F28BF4F4698
:1029200002984FF09209A0F1010800BF5046102113
:102930000022FEF795FA0DF11B06284631465A464D
:1029400001238DF81B900094FFF794F800208DF878
:102950001B00284631465A4601230094FFF78AF8A7
:102960009DF81A60504610210122FEF779FA013FC6
:1029700008F8016FDAD1059807B0BDE8F08F00BF05
:102980000D208021FDF7F4FD022007B0BDE8F08F97
:10299000FEE70000FEE70000704700002DE9F0416F
:1029A00082B01E4690460D460446FEF75FFA301A86
:1029B00000EB0807FEF75AFA40F20801C2F20001E4
:1029C0000968C1F3CB317943019121688A682A40B3
:1029D000AA4227D1064618F101001FD0FEF746FA99
:1029E000801BB84222D2019801990028A1F101016F
:1029F00001912168896808BF074601EA0500A842DD
:102A0000ECD00FE088682840A8420BD188682840A5
:102A1000A84207D188682840A84203D18868284086
:102A2000A842EFD0002002B0BDE8F081D4E9000157
:102A30004268B1F5827F22F0E00242600AD1A168CB
:102A4000B1F5004F02D0B1F5806F03D1016821F0DC
:102A500040010160A16AB1F5005F07D1016821F46E
:102A600000510160016841F400510160012084F8C7
:102A70005100002084F85000032002B0BDE8F0812E
:102A8000704700002DE9F04784B040F60008C4F21A
:102A900001088A4606464046102100224FF00009F0
:102AA000FEF7DEF9802040F2E00540EA4600C2F27F
:102AB00000058DF8090064240DF1090102AA2846D9
:102AC00001230094FEF7D6FF0DF10B010DF10A0270
:102AD000284601238DF80B900094FEF7CBFF9DF85C
:102AE0000A70404610210122FEF7BAF94046102133
:102AF000002247EA0A07FEF7B3F97E2000EA460003
:102B00008DF80D000DF10D0103AA28460123009454
:102B1000FEF7B0FF0DF10F010DF10E022846012363
:102B20008DF80F700094FEF7A5FF4046102101229A
:102B3000FEF796F904B0BDE8F0870000FEF76EBB23
:102B40007047000070B582B040F60005C4F2010580
:102B500005F5006420464FF400510022FEF780F98D
:102B600028464FF4807101220126FEF779F94FF4CF
:102B7000FA60FDF75BFF28464FF480710022FEF7F4
:102B80006FF920464FF400510122FEF769F9002049
:102B900000F01AFE44F60E62C0F6000220200F215B
:102BA0001023009601F00AF902B0BDE8704001F070
:102BB00071BB0000FEE700000129B8BF704780B577
:102BC000C9B2D2B2FDF716FB80BD0000F0B583B0EC
:102BD00044F6086600240DF10605C0F6000601273C
:102BE00002E000BF062C15D200F006FAA0F1410168
:102BF0000429F7D30128F5D0315D28550846322144
:102C00002A220C23009700F079FE01F043FB0134E7
:102C1000E8E700BF48F60004C0F601042046FDF7CF
:102C200095FE0DF1060120460622FDF7D5FE002097
:102C300000F0CAFD012409A201200F2110230094F5
:102C400001F0BCF809A20C202D211023009401F002
:102C5000B5F801F01FFB03B0F0BD00BF4368616E23
:102C600067655061777373776F726400537563653E
:102C7000737366756C6C790010B582B0044649F2C6
:102C80000000C0F6010001A90422FDF773FE2078C0
:102C90009DF80410884211D160789DF80510884293
:102CA0000CD1A0789DF80610884207D1E0789DF8F5
:102CB0000710401A18BF012002B010BD012002B059
:102CC00010BD0000012920DB00230022C35CFF2B84
:102CD00042F001031CD0DBB28B4216DAC35CFF2B3F
:102CE00042F0020314D0DBB28B420EDAC35CFF2B3E
:102CF00042F003030CD0DBB28B4206DAC35C043231
:102D0000FF2B03D0D3B28B42E0DB0722D0B2704757
:102D1000D8B2704780B582B0002000F055FD44F66F
:102D20000E624FF0010CC0F6000220200F2110238C
:102D3000CDF800C001F042F802B0BDE8804001F0DB
:102D4000A9BA000090B0FEF777FA06AC201D242146
:102D5000FDF758FA0220069001200A9010200B90EF
:102D6000002520460D95FEF7F3FB28B1EFF3108008
:102D700072B600BFFEE700BF4FF00F0901A80021A7
:102D8000CDE90195CDE903550595FEF7EBFA28B19C
:102D9000EFF3108072B600BFFEE700BF41F21800EB
:102DA000C4F20200016840F6000841F01001016021
:102DB0000168C4F2010801F010010691069901684A
:102DC00008F5006641F0200101600168012201F070
:102DD00020010691069901684FF0010B41F00401B2
:102DE0000160016801F0040106910699016841F053
:102DF0000801016000684FF4005100F008000690DF
:102E000006983046FEF72CF830464FF480410022F9
:102E10000024FEF725F840464FF444710022FEF7E7
:102E20001FF808F58065284640F603410122FEF7A9
:102E300017F84FF4C04006AFCDE9060B4FF0020A79
:102E4000304639460894CDF824A0FDF7F3FE4046FD
:102E50003946CDE90694CDF820B0FDF7EBFE4FF4EE
:102E60004470CDE9060B40463946CDE9084AFDF7E6
:102E7000E1FE40F60340CDE9060B28463946CDE990
:102E8000084AFDF7D7FE40F27006C2F20006A8F528
:102E90003441304640F8181F48F2A061C0F20101E9
:102EA000C0E901144FF48041C460C0E90414C0E9D2
:102EB00006440462FDF7E0FF20B1EFF3108072B624
:102EC000FEE700BF40F2E00008F52051C2F200002A
:102ED0004FF482724FF40073102780E816000A2125
:102EE000C0E90344C0E90543C761C0E90844C0E93B
:102EF0000A41FEF72DFD28B1EFF3108072B600BF36
:102F0000FEE700BFFFF7FEF900F08CFF002000F0A5
:102F10005BFC4FF0010B2FA220200F211023CDF8D6
:102F200000B000F04BFF01F0B5F9B41C20460621BB
:102F30004FF0FF32FFF740FE06F108050DF1180AC9
:102F40000FF2A8080FF2940926202946FFF706FB86
:102F5000307028BB204606214FF0FF32FFF72CFED1
:102F60002846FFF781F9D8B92846514601F0FCF907
:102F70005046FDF7BFFA0746002000F025FC16205A
:102F80000F21BFB14A461023CDF800B000F016FF64
:102F900001F080F940F6B830FDF748FDFFF7BAFEC2
:102FA00000F02AF801287070CED040B22146FFF719
:102FB00045F9C9E742461023CDF800B000F0FEFE07
:102FC00001F068F9FFF7BEFD00F016F801287070F7
:102FD000BAD0EAE757454C434F4D45004361726410
:102FE00020496E76616C6964000000004361726480
:102FF0002056616C69640000B0B540F60004C4F26C
:10300000010404F5806528464FF400610022FDF7B5
:1030100027FF28464FF480610122FDF721FF284653
:1030200002210122FDF71CFF284601210122FDF7A4
:1030300017FF20460821FDF705FF002800F0B480A7
:1030400020460421FDF7FEFE002800F0B580204652
:103050000221FDF7F7FE002800F0B680204601218E
:10306000FDF7F0FE002800F0B78028464FF400611D
:103070000122FDF7F5FE28464FF480610022FDF79E
:10308000EFFE284602210122FDF7EAFE2846012133
:103090000122FDF7E5FE20460821FDF7D3FE0028BA
:1030A00000F0A28020460421FDF7CCFE002800F0AD
:1030B000A38020460221FDF7C5FE002800F0A48071
:1030C00020460121FDF7BEFE002800F0A78028461B
:1030D0004FF400610122FDF7C3FE28464FF48061E2
:1030E0000122FDF7BDFE284602210022FDF7B8FEB1
:1030F000284601210122FDF7B3FE20460821FDF7F5
:10310000A1FE002800F0948020460421FDF79AFEDD
:10311000002800F0978020460221FDF793FE00284A
:1031200000F0988020460121FDF78CFE002800F079
:10313000998028464FF400610122FDF791FE284650
:103140004FF480610122FDF78BFE28460221012207
:10315000FDF786FE284601210022FDF781FE20466C
:103160000821FDF76FFE002800F08480204604212E
:10317000FDF768FE002800F0858020460221FDF75B
:1031800061FE002800F08680204601210125FDF720
:1031900059FE002840F08580442520460121FDF796
:1031A00051FE0028F9D07CE020460821FDF74AFEB8
:1031B0000028F9D03120B0BD20460421FDF742FEA1
:1031C0000028F9D03220B0BD20460221FDF73AFE9A
:1031D0000028F9D03320B0BD20460121FDF732FE92
:1031E0000028F9D04120B0BD20460821FDF72AFE75
:1031F0000028F9D03420B0BD20460421FDF722FE7E
:103200000028F9D03520B0BD362500BF2046022168
:10321000FDF718FE0028F9D043E000BF422500BFAB
:1032200020460121FDF70EFE0028F9D039E000BF4D
:10323000372500BF20460821FDF704FE0028F9D0FD
:103240002FE000BF382520460421FDF7FBFD0028B4
:10325000F9D026E0392520460221FDF7F3FD0028AC
:10326000F9D01EE0432520460121FDF7EBFD0028A3
:10327000F9D016E02A2520460821FDF7E3FD0028B5
:10328000F9D00EE0302520460421FDF7DBFD0028B3
:10329000F9D006E0232520460221FDF7D3FD0028C2
:1032A000F9D02846B0BD000070B584B042280C4665
:1032B0004ED0412840F09B8048F60000C0F6010047
:1032C0000DF10A010622FDF755FB94F900009DF867
:1032D0000A1088424CD194F901009DF80B108842E5
:1032E00046D194F902009DF80C10884240D194F91F
:1032F00003009DF80D1088423AD194F904009DF81E
:103300000E10884234D194F905009DF80F108842C0
:103310002ED1002000F058FA012539A21E200F21DD
:103320001023009500F04AFD44F62462C0F6000226
:103330001E2023211023009500F040FD00F0AAFF7D
:10334000FFF700FC4FF0FF30A080206004B070BD9C
:10335000FF20607101265220282120220C23009694
:1033600000F0CCFA04B0BDE8704000F093BF00BF9D
:1033700040F2DC06C2F2000630780130C1B2032907
:10338000307013D140F60005C4F2010528464FF411
:103390000071FDF75DFD4FF4FA60FDF747FB28462D
:1033A0004FF40071FDF754FD00203070002000F054
:1033B0000BFA01250FA21E200F211023009500F00B
:1033C000FDFC44F62462C0F600021E2023211023D7
:1033D000009500F0F3FC00F05DFF4FF0FF30A0809F
:1033E00020604FF4FA60FDF721FBFFF793FC04B077
:1033F00070BD00BF494E434F525245435400000038
:10340000434F525245435400B0B582B00C46097840
:103410000546FF290CD1422D00F04A81412D47D1AC
:10342000FEF7E0FE4FF0FF30A08020604EE000BFCE
:103430006078FF2816D0A078FF2851D0E078FF28C8
:1034400000F096802079FF2800F098806079FF28AE
:1034500014BF07220622A5F14300022880F09480C1
:1034600026E100BFA5F14100032800F2A780DFE8B4
:1034700000F003B1A9BB00BF442940F0FE804FF02B
:10348000FF30A0802060FDF7D1F80546002000F055
:103490009BF9012D40F0D6800125B9A20520052118
:1034A0001023009500F08AFCB9A20C20D7E000BFE1
:1034B000A5F14300C0B2012808D8432D72D14320A2
:1034C0002070012520202821432293E02846214610
:1034D0000122012302B0BDE8B040FEF75BBE00BF91
:1034E000A5F1430002286DD3422D00F08D80412DBF
:1034F00040F09480432940F0DB806078442840F01D
:10350000D780002000F060F9012589A22D20052137
:103510001023009500F052FC86A20F2023211023D7
:10352000009500F04BFC00F0B5FE01AD2846FCF71D
:10353000CBFF0028FAD001A8FFF79EFB054600202C
:1035400000F042F9002D00F0D38001257CA220205C
:1035500005211023009500F031FC7CA205201921E3
:103560001023009500F02AFC00F094FED3E000BF89
:103570000422A5F14300022806D299E00522A5F114
:1035800043000228C0F09480412D00F09180422D2C
:103590000CD142202146002302B0BDE8B040FEF726
:1035A000F9BD00BF25700125202021E028462146D5
:1035B000012302B0BDE8B040FEF7ECBDA1F143002D
:1035C000022835D2FEF70EFE4FF0FF30A0802060BB
:1035D00002B0B0BD422021460222002302B0BDE865
:1035E000B040FEF7D7BD00BF4420607001252A20FF
:1035F000282144220C23009500F080F902B0BDE898
:10360000B04000F047BE00BF2846214603220023F9
:1036100002B0BDE8B040FEF7BDBD00BF2846214660
:103620000322012302B0BDE8B040FEF7B3BD00BFE6
:10363000284621460222012302B0BDE8B040FEF731
:10364000A9BD00BF01254AA208200521102300952D
:1036500000F0B4FB44F61F62C0F600021E202321D6
:103660001023009500F0AAFB00F014FE4FF4FA605E
:10367000FDF7DCF9FFF74EFB2178432918D14FF015
:10368000FF30A0802060FCF743FE0446002000F0DD
:103690009BF8012C0ED1012444A20F2005211023F8
:1036A000009400F08BFB44A212201E2110E000BF0A
:1036B00002B0B0BD01243AA20820052110230094D5
:1036C00000F07CFB44F61F62C0F600021E2023219E
:1036D0001023009400F072FB00F0DCFD4FF4FA6060
:1036E000FDF7A4F902B0BDE8B040FFF713BB00BF7F
:1036F000012519A2252005211023009500F05EFB6D
:1037000017A2082019211023009500F057FB00F0A4
:10371000C1FDFFF75BFA4FF0FF30A08020604FF44F
:10372000FA60FDF783F9FFF7F5FA02B0B0BD00BF0C
:10373000416464004D61696E204361726400000061
:103740004D61696E43617264000000004E6F742029
:1037500056616C6964000000456E7465720000007B
:103760004E65772050617373776F726400000000BC
:103770004661696C2044656C6574656420000000D6
:10378000436172642044656C6574656420000000C8
:103790005375636365737366756C6C790000000024
:1037A0004661696C20416464656420004361726411
:1037B00020416464656420002053756363657373FE
:1037C00066756C6C790000002DE9F04F83B040F213
:1037D000581740F288050446C2F200070226C2F2DA
:1037E00000050DF106080DF1080A0DF10A0B4FF066
:1037F000000900BFA9F150008DF8070000208DF8E6
:10380000060000BF28467821424602230096FDF7B5
:10381000E5FB0028F6D14FF40070ADF8080000BFBA
:1038200028467821524602230096FDF7D7FB002850
:10383000F6D14FF48050ADF80A0000BF2846782139
:103840005A4602230096FDF7C9FB0028F6D14FF631
:103850000040CFF6FF7000BF391810F5807081F876
:10386000004481F8084481F8104481F8184481F834
:10387000204481F8284481F8304481F8384481F8A4
:10388000404481F8484481F8504481F8584481F814
:10389000604481F8684481F8704481F8784481F884
:1038A000804481F8884481F8904481F8984481F8F4
:1038B000A04481F8A84481F8B04481F8B84481F864
:1038C000C04481F8C84481F8D04481F8D84481F8D4
:1038D000E04481F8E84481F8F04481F8F844BBD131
:1038E00009F10109B9F1080F07F101077FF482AF6F
:1038F00000F0D0FC03B0BDE8F08F00002DE9F04FE0
:1039000084B09B46002B00F055820B460D99203A5F
:1039100000294FF0000108BF4FF0FF31029144F63B
:103920000801D2B2C0F600014FF0000E01EB021404
:10393000D8469C46CDE90023BBF1100F0ED0BBF159
:103940000C0F10D1009944F2943501EB4101C0F6FF
:10395000000505EB8101714401E000BF21460978B3
:10396000029D81EA050941B200291DD44FFA89F16F
:10397000B1F1FF3FC2B25FFA8CF11FDD3F2932D8AF
:10398000072540F25813A5EBD101C2F20003C9B2DA
:1039900003EBC20625EA0C07755C012303FA07F75F
:1039A000019B25EA07071DE00CF10101C9B2C91A04
:1039B000594541D14FEA4905F2E100BF3F2912D8EC
:1039C000072540F25813A5EBD101C2F20003C9B29A
:1039D00003EBC20625EA0C07755C012303FA07F71F
:1039E000019B2F4377540CF1010A5FFA8AF74FEAE3
:1039F0004901FE1A5E454DB2039200F0D181B5F146
:103A0000FF3F23DD3F2F37D8072640F25813039A94
:103A1000A6EBD701C2F20003C9B203EBC20526EA46
:103A20000A0615F801A0012303FA06F7019B2AEA0A
:103A300007076F5420E000BF0CF10201C9B2C91A98
:103A400059453DD14FEA8905AAE100BF3F2F13D860
:103A5000072640F25813039AA6EBD701C2F20003DF
:103A6000C9B203EBC20726EA0A0A7A5C012303FA09
:103A70000AF5019B15437D540CF10207F9B24FEA98
:103A80008905CE1A5E456DB200F08A81B5F1FF3F1F
:103A900020DD3F2934D8072540F25813039AA5EBBF
:103AA000D101C2F20003C9B203EBC20625EA07073F
:103AB000755C012303FA07F7019B25EA07071EE05F
:103AC0000CF10301C9B2C91A59453DD14FEAC905E4
:103AD00066E100BF3F2913D8072540F25813039A27
:103AE000A5EBD101C2F20003C9B203EBC20625EA7D
:103AF0000707755C012303FA07F7019B2F437754EF
:103B00000CF10307F9B24FEAC906CD1A5D4575B24B
:103B100000F04681B5F1FF3F20DD3F2934D807256D
:103B200040F25813039AA5EBD101C2F20003C9B2C7
:103B300003EBC20625EA0707755C012303FA07F7C2
:103B4000019B25EA07071EE00CF10401C9B2C91A5E
:103B500059453DD14FEA091522E100BF3F2913D84D
:103B6000072540F25813039AA5EBD101C2F20003D6
:103B7000C9B203EBC20625EA0707755C012303FA05
:103B800007F7019B2F4377540CF10407F9B24FEA72
:103B90000916CD1A5D4575B200F00281B5F1FF3FFF
:103BA00020DD3F2934D8072540F25813039AA5EBAE
:103BB000D101C2F20003C9B203EBC20625EA07072E
:103BC000755C012303FA07F7019B25EA07071EE04E
:103BD0000CF10501C9B2C91A59453DD14FEA491541
:103BE000DEE000BF3F2913D8072540F25813039A9F
:103BF000A5EBD101C2F20003C9B203EBC20625EA6C
:103C00000707755C012303FA07F7019B2F437754DD
:103C10000CF10507F9B24FEA4916CD1A5D4575B2A8
:103C200000F0BE80B5F1FF3F20DD3F2934D80725E5
:103C300040F25813039AA5EBD101C2F20003C9B2B6
:103C400003EBC20625EA0707755C012303FA07F7B1
:103C5000019B25EA07071EE00CF10601C9B2C91A4B
:103C600059453DD14FEA89159AE000BF3F2913D845
:103C7000072540F25813039AA5EBD101C2F20003C5
:103C8000C9B203EBC20625EA0707755C012303FAF4
:103C900007F7019B2F4377540CF10607F9B24FEA5F
:103CA0008916CD1A5D4575B27AD0B5F1FF3F21DD99
:103CB0003F2935D8072540F25813039AA5EBD101C7
:103CC000C2F20003C9B203EBC20625EA0707755C1E
:103CD000012303FA07F7019B25EA07071FE000BF4E
:103CE0000CF10701C9B2C91A594550D14FEAC9159B
:103CF00056E000BF3F2913D8072540F25813039A16
:103D0000A5EBD101C2F20003C9B203EBC20625EA5A
:103D10000707755C012303FA07F7019B2F437754CC
:103D20000CF10707F9B2CE1A5E454FEAC91537D034
:103D30002E0615D03F292AD8072540F25813039A9A
:103D4000A5EBD101C2F20003C9B203EBC20625EA1A
:103D50000707755C012303FA07F7019B2F4315E062
:103D60003F2914D8072540F25813039AA5EBD10137
:103D7000C2F20003C9B203EBC20625EA0707755C6D
:103D8000012303FA07F7019B25EA070777540CF193
:103D9000080C5FFA8CF1C91A59454FF0000501D1A2
:103DA00001309C460EF1010E0134B8F10108A9461C
:103DB0007FF4C2AD04B0BDE8F08F00002DE9F04FF4
:103DC00081B01C4613784BB30646DDF8288080206E
:103DD0000D464FEA5409A0EB540BC4F1400A571C9E
:103DE0000DE000BF0026F0B2E9B2DAB22346CDF80A
:103DF0000080FFF783FD17F8013B4E4473B1F0B22A
:103E00008345F0D22544E8B28245EBDA0020002554
:103E1000FFF7DAFC17F8013CE4E700BF01B0BDE8AA
:103E2000F08F000070B582B040F288044FF42E404D
:103E30000226C2F200040DF10605ADF8060000BF2F
:103E4000204678212A4602230096FDF7C7F800286D
:103E5000F6D140F2880400200226C2F200040DF1DF
:103E60000605ADF8060000BF204678212A46022349
:103E70000096FDF7B3F80028F6D140F288044FF41D
:103E800080500226C2F200040DF10605ADF80600CE
:103E9000204678212A4602230096FDF79FF8002845
:103EA000F6D140F288044FF480400226C2F20004AA
:103EB0000DF10605ADF80600204678212A460223BA
:103EC0000096FDF78BF80028F6D140F288044FF4F5
:103ED00001400226C2F200040DF10605ADF806000D
:103EE000204678212A4602230096FDF777F800281D
:103EF000F6D140F288044FF44F400226C2F200048B
:103F00000DF10605ADF80600204678212A46022369
:103F10000096FDF763F80028F6D140F288044FF4CC
:103F200021400226C2F200040DF10605ADF806009C
:103F3000204678212A4602230096FDF74FF80028F4
:103F4000F6D140F288044FF440400226C2F2000449
:103F50000DF10605ADF80600204678212A46022319
:103F60000096FDF73BF80028F6D140F288044FF4A4
:103F700026400226C2F200040DF10605ADF8060047
:103F8000204678212A4602230096FDF727F80028CC
:103F9000F6D140F288044FF428400226C2F2000411
:103FA0000DF10605ADF80600204678212A460223C9
:103FB0000096FDF713F80028F6D140F288044FF47C
:103FC0007C500226C2F200040DF10605ADF8060091
:103FD000204678212A4602230096FCF7FFFF00289E
:103FE000F6D140F288044FF453400226C2F2000496
:103FF0000DF10605ADF80600204678212A46022379
:104000000096FCF7EBFF0028F6D140F28804002070
:104010000226C2F200040DF10605ADF8060000BF4D
:10402000204678212A4602230096FCF7D7FF002875
:10403000F6D140F288044FF455400226C2F2000443
:104040000DF10605ADF80600204678212A46022328
:104050000096FCF7C3FF0028F6D140F288044FF425
:1040600000400226C2F200040DF10605ADF806007C
:10407000204678212A4602230096FCF7AFFF00284D
:10408000F6D140F288044FF459400226C2F20004EF
:104090000DF10605ADF80600204678212A460223D8
:1040A0000096FCF79BFF0028F6D140F288044FF4FD
:1040B00071400226C2F200040DF10605ADF80600BB
:1040C000204678212A4602230096FCF787FF002825
:1040D000F6D140F288044FF45A400226C2F200049E
:1040E0000DF10605ADF80600204678212A46022388
:1040F0000096FCF773FF0028F6D140F288044FF4D5
:1041000090500226C2F200040DF10605ADF806003B
:10411000204678212A4602230096FCF75FFF0028FC
:10412000F6D140F288044FF45B400226C2F200044C
:104130000DF10605ADF80600204678212A46022337
:104140000096FCF74BFF0028F6D140F288044FF4AC
:1041500080400226C2F200040DF10605ADF806000B
:10416000204678212A4602230096FCF737FF0028D4
:10417000F6D140F288044FF400500226C2F2000447
:104180000DF10605ADF80600204678212A460223E7
:104190000096FCF723FF0028F6D140F288044FF484
:1041A00000700226C2F200040DF10605ADF806000B
:1041B000204678212A4602230096FCF70FFF0028AC
:1041C000F6D140F288044FF40D400226C2F20004FA
:1041D0000DF10605ADF80600204678212A46022397
:1041E0000096FCF7FBFE0028F6D140F288044FF45D
:1041F000A0500226C2F200040DF10605ADF806003B
:10420000204678212A4602230096FCF7E7FE002884
:10421000F6D140F288044FF424400226C2F2000492
:104220000DF10605ADF80600204678212A46022346
:104230000096FCF7D3FE0028F6D140F288044FF434
:1042400026400226C2F200040DF10605ADF8060074
:10425000204678212A4602230096FCF7BFFE00285C
:10426000F6D140F288044FF42F400226C2F2000437
:104270000DF10605ADF80600204678212A460223F6
:104280000096FCF7ABFE0028F6D10020FFF79CFA61
:1042900002B070BD2DE9F04F83B040F288040226D1
:1042A000C2F200040DF1040A0DF106070DF1080B2E
:1042B0004FF040090DF10A054FF00008A8F1500039
:1042C0008DF8050000208DF8040000BF20467821FD
:1042D000524602230096FCF781FE0028F6D14FF4E7
:1042E0000070ADF8060000BF204678213A46022350
:1042F0000096FCF773FE0028F6D157464FF4805025
:10430000ADF80800204678215A4602230096FCF7B3
:1043100065FE0028F6D14FF0000A00BF40F25810A9
:10432000C2F2000000EBCA0010F808008DF80A90F5
:104330008DF80B00204678212A4602230096FCF7D0
:104340004DFE0028F6D10AF1010ABAF1800FE5D13D
:1043500008F10108B8F1080FBA460DF10607ADD112
:1043600003B0BDE8F08F000042780A7082784A708E
:10437000C2788A700079C8707047000000000000A1
:104380000000010203040607080900000000010202
:104390000304010200000000000000000000000013
:1043A000000000003F40000000000000000030005E
:1043B000400030004000000009000BC03D000BC071
:1043C0003D00090018C024407FE0224031800000F9
:1043D000180024C01B000D803240018003801C4067
:1043E00027401C80074000401000600000000000D3
:1043F000000000000000000000001F80204040205E
:104400000000402020401F8000000000090006003E
:104410001F80060009000000040004003F80040023
:104420000400000000100060000000000000000018
:104430000400040004000400040000000000004028
:104440000000000000000000002001C0060038004D
:10445000400000001F802040204020401F800000BE
:10446000000010403FC000400000000018C0214084
:104470002240244018400000108020402440244066
:104480001B80000002000D0011003FC00140000031
:104490003C80244024402440238000001F8024408E
:1044A00024403440038000003000200027C0380042
:1044B000200000001B802440244024401B8000007A
:1044C0001C0022C0224022401F800000000000008B
:1044D0000840000000000000000000000460000030
:1044E00000000000000004000A001100208040408D
:1044F000090009000900090009000000000040400F
:10450000208011000A00040018002000234024002D
:10451000180000001F802040274029401F40000055
:10452000004007C039000F0001C0004020403FC0DC
:10453000244024401B8000001F8020402040204059
:104540003080000020403FC0204020401F800000FD
:1045500020403FC024402E4030C0000020403FC0DB
:1045600024402E00300000000F0010802040224028
:104570003380020020403FC0040004003FC02040C0
:10458000204020403FC0204020400000006020200C
:1045900020203FC02000200020403FC024400B00CE
:1045A00030C0204020403FC020400040004000C0BC
:1045B0003FC03C0003C03C003FC0000020403FC063
:1045C0000C4023003FC020001F802040204020409E
:1045D0001F80000020403FC024402400180000003D
:1045E0001F802140214020E01FA0000020403FC04C
:1045F0002440260019C0004018C024402440224016
:1046000031800000300020403FC0204030000000DA
:1046100020003F80004000403F80200020003E00FE
:1046200001C0070038002000380007C03C0007C068
:1046300038000000204039C0060039C0204000008A
:104640002000384007C0384020000000304021C022
:104650002640384020C00000000000007FE04020DD
:1046600040200000000070000C00038000400000AB
:104670000000402040207FE00000000000002000FB
:10468000400020000000000000100010001000108A
:1046900000100010000000004000000000000000BA
:1046A000000002800540054003C0004020003FC0DC
:1046B00004400440038000000000038004400440E4
:1046C0000640000000000380044024403FC000403A
:1046D0000000038005400540034000000000044046
:1046E0001FC0244024402000000002E00550055077
:1046F0000650042020403FC00440040003C0004096
:104700000000044027C0004000000000001000101E
:10471000041027E00000000020403FC001400700D7
:1047200004C00440204020403FC000400040000042
:1047300007C0040007C0040003C00000044007C015
:104740000440040003C00040000003800440044013
:1047500003800000041007F00450044003800000B0
:10476000000003800440045007F00010044007C01C
:10477000024004000400000000000640054005401F
:1047800004C00000000004001F800440004000003E
:10479000040007800040044007C0004004000700F8
:1047A00004C0018006000400060001C0070001C02B
:1047B00006000000044006C0010006C004400000DE
:1047C0000410071004E0018006000400000004400B
:1047D00005C00640044000000000000004007BE02B
:1047E00040200000000000000000FFF0000000007A
:1047F000000040207BE0040000000000400080003A
:1048000040002000200040000000000000000000E8
:1048100000000000000000000000000000001FCCAD
:10482000000C0000000000000000080030006000E4
:104830000800300060000000022003FC1E2002205F
:1048400003FC1E200220000000000E1811043FFF90
:1048500010840C78000000000F0010840F3800C096
:10486000077818840078000000780F8410C41124A1
:104870000E9800E400840008080068007000000042
:10488000000000000000000000000000000007E041
:1048900018182004400200000000400220041818EC
:1048A00007E00000000000000240024001800FF01D
:1048B00001800240024000000080008000800FF86C
:1048C00000800080008000000001000D000E00004C
:1048D0000000000000000000000000800080008058
:1048E00000800080008000800000000C000C0000B0
:1048F000000000000000000000000006001800603A
:104900000180060018002000000007F008081004CD
:104910001004080807F000000000080408041FFC49
:10492000000400040000000000000E0C101410240D
:10493000104411840E0C000000000C181004110427
:10494000110412880C700000000000E00320042411
:1049500008241FFC0024000000001F98108411048C
:104960001104108810700000000007F0088811047E
:10497000110418880070000000001C00100010FCDA
:1049800013001C001000000000000E3811441084B9
:10499000108411440E38000000000700088C1044F9
:1049A0001044088807F00000000000000000030C1D
:1049B000030C0000000000000000000000010106E0
:1049C0000000000000000000000000800140022004
:1049D0000410080810040000022002200220022017
:1049E0000220022002200000000010040808041029
:1049F000022001400080000000000E001200100C98
:104A0000106C10800F00000003E00C1813E4142455
:104A100017C4082807D000000004003C03C41C4051
:104A2000074000E4001C000410041FFC11041104E2
:104A300011040E880070000003E00C18100410042C
:104A4000100410081C10000010041FFC10041004B7
:104A50001004080807F0000010041FFC11041104E2
:104A600017C410040818000010041FFC11041100E2
:104A700017C010000800000003E00C181004100418
:104A800010441C780040000010041FFC10840080BB
:104A9000008010841FFC10040000100410041FFC90
:104AA00010041004000000000003000110011001B8
:104AB0001FFE10001000000010041FFC11040380F2
:104AC0001464181C1004000010041FFC10040004DF
:104AD00000040004000C000010041FFC1F0000FC78
:104AE0001F001FFC1004000010041FFC0C04030036
:104AF00000E010181FFC100007F008081004100454
:104B00001004080807F0000010041FFC1084108037
:104B1000108010800F00000007F0081810241024E7
:104B2000101C080A07F2000010041FFC11041100F9
:104B300011C011300E0C000400000E1C1104108472
:104B4000108410441C3800001800100010041FFCD2
:104B5000100410001800000010001FF810040004DA
:104B6000000410041FF8100010001E0011E0001CCB
:104B7000007013801C0010001FC0103C00E01F00DC
:104B800000E0103C1FC000001004180C163401C0D7
:104B900001C01634180C100410001C00130400FC93
:104BA00013041C00100000000804101C1064108482
:104BB00013041C04101800000000000000007FFE19
:104BC0004002400240020000000030000C00038060
:104BD0000060001C00030000000040024002400290
:104BE0007FFE0000000000000000000020004000E8
:104BF0004000400020000000000100010001000111
:104C00000001000100010001000040004000200000
:104C10000000000000000000000000980124014492
:104C20000144014400FC000410001FFC0088010442
:104C3000010400880070000000000070008801047A
:104C400001040104008800000000007000880104D5
:104C5000010411081FFC0004000000F80144014495
:104C60000144014400C800000000010401040FFCDD
:104C70001104110411001800000000D601290129B7
:104C8000012901C90106000010041FFC0084010075
:104C90000100010400FC000400000104190419FCD7
:104CA00000040004000000000000000300010101F6
:104CB000190119FE0000000010041FFC0024004030
:104CC00001B4010C010400000000100410041FFCDA
:104CD0000004000400000000010401FC01040100C4
:104CE00001FC0104010000FC010401FC008401003E
:104CF0000100010400FC0004000000F801040104AC
:104D00000104010400F80000010101FF0085010415
:104D10000104008800700000000000700088010499
:104D20000104010501FF00010104010401FC0084EC
:104D30000104010001800000000000CC01240124D6
:104D4000012401240198000000000100010007F87F
:104D50000104010400000000010001F80004000447
:104D60000004010801FC0004010001800170000C36
:104D7000001001600180010001F0010C003001C051
:104D80000030010C01F0010000000104018C0074EE
:104D90000170018C01040000010101810171000E0C
:104DA000001801600180010000000184010C013441
:104DB00001440184010C000000000000000000001C
:104DC00001003EFC40024002000000000000000024
:104DD000FFFF0000000000000000400240023EFC17
:104DE0000100000000000000000060008000800062
:104DF00040004000200020000203040506070809C7
:104E00000A0B0C0D0E0F1010202A343E4852574545
:104E10004C434F4D4500416464004D61696E204331
:104E20006172640050415353574F524400000000D8
:104E3000504E000800000020100000005001000843
:104E4000604E000810000020500B000070010008A8
:104E500001000000100000000024F4000000000029
:04000005080000ED02
:00000001FF
